{
  "contractName": "TheCashMachine",
  "abi": [
    {
      "inputs": [
        {
          "internalType": "address",
          "name": "AutoLiqLocker",
          "type": "address"
        },
        {
          "internalType": "address",
          "name": "marketingWallet",
          "type": "address"
        }
      ],
      "stateMutability": "nonpayable",
      "type": "constructor"
    },
    {
      "anonymous": false,
      "inputs": [
        {
          "indexed": true,
          "internalType": "address",
          "name": "owner",
          "type": "address"
        },
        {
          "indexed": true,
          "internalType": "address",
          "name": "spender",
          "type": "address"
        },
        {
          "indexed": false,
          "internalType": "uint256",
          "name": "value",
          "type": "uint256"
        }
      ],
      "name": "Approval",
      "type": "event"
    },
    {
      "anonymous": false,
      "inputs": [
        {
          "indexed": false,
          "internalType": "uint256",
          "name": "amountBNB",
          "type": "uint256"
        },
        {
          "indexed": false,
          "internalType": "uint256",
          "name": "amountBOG",
          "type": "uint256"
        }
      ],
      "name": "AutoLiquify",
      "type": "event"
    },
    {
      "anonymous": false,
      "inputs": [
        {
          "indexed": false,
          "internalType": "uint256",
          "name": "duration",
          "type": "uint256"
        }
      ],
      "name": "BuybackMultiplierActive",
      "type": "event"
    },
    {
      "anonymous": false,
      "inputs": [
        {
          "indexed": false,
          "internalType": "bool",
          "name": "success",
          "type": "bool"
        },
        {
          "indexed": false,
          "internalType": "bytes",
          "name": "data",
          "type": "bytes"
        }
      ],
      "name": "CallInvocationResults",
      "type": "event"
    },
    {
      "anonymous": false,
      "inputs": [
        {
          "indexed": true,
          "internalType": "address",
          "name": "previousOwner",
          "type": "address"
        },
        {
          "indexed": true,
          "internalType": "address",
          "name": "newOwner",
          "type": "address"
        }
      ],
      "name": "OwnershipTransferred",
      "type": "event"
    },
    {
      "anonymous": false,
      "inputs": [
        {
          "indexed": true,
          "internalType": "address",
          "name": "from",
          "type": "address"
        },
        {
          "indexed": true,
          "internalType": "address",
          "name": "to",
          "type": "address"
        },
        {
          "indexed": false,
          "internalType": "uint256",
          "name": "value",
          "type": "uint256"
        }
      ],
      "name": "Transfer",
      "type": "event"
    },
    {
      "inputs": [],
      "name": "_maxTxAmount",
      "outputs": [
        {
          "internalType": "uint256",
          "name": "",
          "type": "uint256"
        }
      ],
      "stateMutability": "view",
      "type": "function",
      "constant": true
    },
    {
      "inputs": [],
      "name": "_maxWalletSize",
      "outputs": [
        {
          "internalType": "uint256",
          "name": "",
          "type": "uint256"
        }
      ],
      "stateMutability": "view",
      "type": "function",
      "constant": true
    },
    {
      "inputs": [],
      "name": "_sellMultiplierDenominator",
      "outputs": [
        {
          "internalType": "uint256",
          "name": "",
          "type": "uint256"
        }
      ],
      "stateMutability": "view",
      "type": "function",
      "constant": true
    },
    {
      "inputs": [],
      "name": "_sellMultiplierNumerator",
      "outputs": [
        {
          "internalType": "uint256",
          "name": "",
          "type": "uint256"
        }
      ],
      "stateMutability": "view",
      "type": "function",
      "constant": true
    },
    {
      "inputs": [],
      "name": "anti_sniper_blocks",
      "outputs": [
        {
          "internalType": "uint256",
          "name": "",
          "type": "uint256"
        }
      ],
      "stateMutability": "view",
      "type": "function",
      "constant": true
    },
    {
      "inputs": [],
      "name": "autoBuybackEnabled",
      "outputs": [
        {
          "internalType": "bool",
          "name": "",
          "type": "bool"
        }
      ],
      "stateMutability": "view",
      "type": "function",
      "constant": true
    },
    {
      "inputs": [],
      "name": "autoLiquidityReceiver",
      "outputs": [
        {
          "internalType": "address",
          "name": "",
          "type": "address"
        }
      ],
      "stateMutability": "view",
      "type": "function",
      "constant": true
    },
    {
      "inputs": [],
      "name": "currentlyServing",
      "outputs": [
        {
          "internalType": "string",
          "name": "",
          "type": "string"
        }
      ],
      "stateMutability": "view",
      "type": "function",
      "constant": true
    },
    {
      "inputs": [],
      "name": "distributor",
      "outputs": [
        {
          "internalType": "contract DividendDistributor",
          "name": "",
          "type": "address"
        }
      ],
      "stateMutability": "view",
      "type": "function",
      "constant": true
    },
    {
      "inputs": [
        {
          "internalType": "address",
          "name": "",
          "type": "address"
        }
      ],
      "name": "isDividendExempt",
      "outputs": [
        {
          "internalType": "bool",
          "name": "",
          "type": "bool"
        }
      ],
      "stateMutability": "view",
      "type": "function",
      "constant": true
    },
    {
      "inputs": [
        {
          "internalType": "address",
          "name": "",
          "type": "address"
        }
      ],
      "name": "isFeeExempt",
      "outputs": [
        {
          "internalType": "bool",
          "name": "",
          "type": "bool"
        }
      ],
      "stateMutability": "view",
      "type": "function",
      "constant": true
    },
    {
      "inputs": [
        {
          "internalType": "address",
          "name": "",
          "type": "address"
        }
      ],
      "name": "isTxLimitExempt",
      "outputs": [
        {
          "internalType": "bool",
          "name": "",
          "type": "bool"
        }
      ],
      "stateMutability": "view",
      "type": "function",
      "constant": true
    },
    {
      "inputs": [],
      "name": "launchedAt",
      "outputs": [
        {
          "internalType": "uint256",
          "name": "",
          "type": "uint256"
        }
      ],
      "stateMutability": "view",
      "type": "function",
      "constant": true
    },
    {
      "inputs": [],
      "name": "marketingFeeReceiver",
      "outputs": [
        {
          "internalType": "address",
          "name": "",
          "type": "address"
        }
      ],
      "stateMutability": "view",
      "type": "function",
      "constant": true
    },
    {
      "inputs": [],
      "name": "owner",
      "outputs": [
        {
          "internalType": "address",
          "name": "",
          "type": "address"
        }
      ],
      "stateMutability": "view",
      "type": "function",
      "constant": true
    },
    {
      "inputs": [],
      "name": "pair",
      "outputs": [
        {
          "internalType": "address",
          "name": "",
          "type": "address"
        }
      ],
      "stateMutability": "view",
      "type": "function",
      "constant": true
    },
    {
      "inputs": [],
      "name": "penalizingSalesEnabled",
      "outputs": [
        {
          "internalType": "bool",
          "name": "",
          "type": "bool"
        }
      ],
      "stateMutability": "view",
      "type": "function",
      "constant": true
    },
    {
      "inputs": [],
      "name": "renounceOwnership",
      "outputs": [],
      "stateMutability": "nonpayable",
      "type": "function"
    },
    {
      "inputs": [],
      "name": "router",
      "outputs": [
        {
          "internalType": "contract IDEXRouter",
          "name": "",
          "type": "address"
        }
      ],
      "stateMutability": "view",
      "type": "function",
      "constant": true
    },
    {
      "inputs": [],
      "name": "swapEnabled",
      "outputs": [
        {
          "internalType": "bool",
          "name": "",
          "type": "bool"
        }
      ],
      "stateMutability": "view",
      "type": "function",
      "constant": true
    },
    {
      "inputs": [],
      "name": "swapThreshold",
      "outputs": [
        {
          "internalType": "uint256",
          "name": "",
          "type": "uint256"
        }
      ],
      "stateMutability": "view",
      "type": "function",
      "constant": true
    },
    {
      "inputs": [
        {
          "internalType": "address",
          "name": "newOwner",
          "type": "address"
        }
      ],
      "name": "transferOwnership",
      "outputs": [],
      "stateMutability": "nonpayable",
      "type": "function"
    },
    {
      "inputs": [],
      "name": "txLimitFailsafe",
      "outputs": [
        {
          "internalType": "bool",
          "name": "",
          "type": "bool"
        }
      ],
      "stateMutability": "view",
      "type": "function",
      "constant": true
    },
    {
      "stateMutability": "payable",
      "type": "receive",
      "payable": true
    },
    {
      "inputs": [
        {
          "internalType": "address",
          "name": "shareholder",
          "type": "address"
        }
      ],
      "name": "getUnpaidEarnings",
      "outputs": [
        {
          "internalType": "uint256",
          "name": "",
          "type": "uint256"
        }
      ],
      "stateMutability": "view",
      "type": "function",
      "constant": true
    },
    {
      "inputs": [],
      "name": "claimDividend",
      "outputs": [],
      "stateMutability": "nonpayable",
      "type": "function"
    },
    {
      "inputs": [],
      "name": "totalSupply",
      "outputs": [
        {
          "internalType": "uint256",
          "name": "",
          "type": "uint256"
        }
      ],
      "stateMutability": "view",
      "type": "function",
      "constant": true
    },
    {
      "inputs": [],
      "name": "decimals",
      "outputs": [
        {
          "internalType": "uint8",
          "name": "",
          "type": "uint8"
        }
      ],
      "stateMutability": "pure",
      "type": "function",
      "constant": true
    },
    {
      "inputs": [],
      "name": "symbol",
      "outputs": [
        {
          "internalType": "string",
          "name": "",
          "type": "string"
        }
      ],
      "stateMutability": "pure",
      "type": "function",
      "constant": true
    },
    {
      "inputs": [],
      "name": "name",
      "outputs": [
        {
          "internalType": "string",
          "name": "",
          "type": "string"
        }
      ],
      "stateMutability": "pure",
      "type": "function",
      "constant": true
    },
    {
      "inputs": [],
      "name": "getOwner",
      "outputs": [
        {
          "internalType": "address",
          "name": "",
          "type": "address"
        }
      ],
      "stateMutability": "view",
      "type": "function",
      "constant": true
    },
    {
      "inputs": [
        {
          "internalType": "address",
          "name": "account",
          "type": "address"
        }
      ],
      "name": "balanceOf",
      "outputs": [
        {
          "internalType": "uint256",
          "name": "",
          "type": "uint256"
        }
      ],
      "stateMutability": "view",
      "type": "function",
      "constant": true
    },
    {
      "inputs": [
        {
          "internalType": "address",
          "name": "holder",
          "type": "address"
        },
        {
          "internalType": "address",
          "name": "spender",
          "type": "address"
        }
      ],
      "name": "allowance",
      "outputs": [
        {
          "internalType": "uint256",
          "name": "",
          "type": "uint256"
        }
      ],
      "stateMutability": "view",
      "type": "function",
      "constant": true
    },
    {
      "inputs": [
        {
          "internalType": "address",
          "name": "spender",
          "type": "address"
        },
        {
          "internalType": "uint256",
          "name": "amount",
          "type": "uint256"
        }
      ],
      "name": "approve",
      "outputs": [
        {
          "internalType": "bool",
          "name": "",
          "type": "bool"
        }
      ],
      "stateMutability": "nonpayable",
      "type": "function"
    },
    {
      "inputs": [
        {
          "internalType": "address",
          "name": "spender",
          "type": "address"
        }
      ],
      "name": "approveMax",
      "outputs": [
        {
          "internalType": "bool",
          "name": "",
          "type": "bool"
        }
      ],
      "stateMutability": "nonpayable",
      "type": "function"
    },
    {
      "inputs": [
        {
          "internalType": "address",
          "name": "recipient",
          "type": "address"
        },
        {
          "internalType": "uint256",
          "name": "amount",
          "type": "uint256"
        }
      ],
      "name": "transfer",
      "outputs": [
        {
          "internalType": "bool",
          "name": "",
          "type": "bool"
        }
      ],
      "stateMutability": "nonpayable",
      "type": "function"
    },
    {
      "inputs": [
        {
          "internalType": "address",
          "name": "sender",
          "type": "address"
        },
        {
          "internalType": "address",
          "name": "recipient",
          "type": "address"
        },
        {
          "internalType": "uint256",
          "name": "amount",
          "type": "uint256"
        }
      ],
      "name": "transferFrom",
      "outputs": [
        {
          "internalType": "bool",
          "name": "",
          "type": "bool"
        }
      ],
      "stateMutability": "nonpayable",
      "type": "function"
    },
    {
      "inputs": [
        {
          "internalType": "bool",
          "name": "selling",
          "type": "bool"
        }
      ],
      "name": "getTotalFee",
      "outputs": [
        {
          "internalType": "uint256",
          "name": "",
          "type": "uint256"
        }
      ],
      "stateMutability": "view",
      "type": "function",
      "constant": true
    },
    {
      "inputs": [
        {
          "internalType": "uint256",
          "name": "amount",
          "type": "uint256"
        },
        {
          "internalType": "bool",
          "name": "triggerBuybackMultiplier",
          "type": "bool"
        }
      ],
      "name": "triggerManualBuyback",
      "outputs": [],
      "stateMutability": "nonpayable",
      "type": "function"
    },
    {
      "inputs": [],
      "name": "clearBuybackMultiplier",
      "outputs": [],
      "stateMutability": "nonpayable",
      "type": "function"
    },
    {
      "inputs": [
        {
          "internalType": "bool",
          "name": "_enabled",
          "type": "bool"
        },
        {
          "internalType": "uint256",
          "name": "_cap",
          "type": "uint256"
        },
        {
          "internalType": "uint256",
          "name": "_amount",
          "type": "uint256"
        },
        {
          "internalType": "uint256",
          "name": "_period",
          "type": "uint256"
        }
      ],
      "name": "setAutoBuybackSettings",
      "outputs": [],
      "stateMutability": "nonpayable",
      "type": "function"
    },
    {
      "inputs": [
        {
          "internalType": "uint256",
          "name": "blocks",
          "type": "uint256"
        }
      ],
      "name": "setAntiSniperBlocks",
      "outputs": [],
      "stateMutability": "nonpayable",
      "type": "function"
    },
    {
      "inputs": [
        {
          "internalType": "bool",
          "name": "toggle",
          "type": "bool"
        }
      ],
      "name": "setTxLimitFailsafe",
      "outputs": [],
      "stateMutability": "nonpayable",
      "type": "function"
    },
    {
      "inputs": [
        {
          "internalType": "uint256",
          "name": "numerator",
          "type": "uint256"
        },
        {
          "internalType": "uint256",
          "name": "divisor",
          "type": "uint256"
        }
      ],
      "name": "setTxLimit",
      "outputs": [],
      "stateMutability": "nonpayable",
      "type": "function"
    },
    {
      "inputs": [
        {
          "internalType": "address",
          "name": "newToken",
          "type": "address"
        }
      ],
      "name": "setReflectToken",
      "outputs": [],
      "stateMutability": "nonpayable",
      "type": "function"
    },
    {
      "inputs": [
        {
          "internalType": "uint256",
          "name": "numerator",
          "type": "uint256"
        },
        {
          "internalType": "uint256",
          "name": "divisor",
          "type": "uint256"
        }
      ],
      "name": "setMaxWallet",
      "outputs": [],
      "stateMutability": "nonpayable",
      "type": "function"
    },
    {
      "inputs": [
        {
          "internalType": "uint256",
          "name": "numerator",
          "type": "uint256"
        },
        {
          "internalType": "uint256",
          "name": "divisor",
          "type": "uint256"
        }
      ],
      "name": "setSellMultiplier",
      "outputs": [],
      "stateMutability": "nonpayable",
      "type": "function"
    },
    {
      "inputs": [
        {
          "internalType": "address",
          "name": "holder",
          "type": "address"
        },
        {
          "internalType": "bool",
          "name": "exempt",
          "type": "bool"
        }
      ],
      "name": "setIsDividendExempt",
      "outputs": [],
      "stateMutability": "nonpayable",
      "type": "function"
    },
    {
      "inputs": [
        {
          "internalType": "address",
          "name": "holder",
          "type": "address"
        },
        {
          "internalType": "bool",
          "name": "exempt",
          "type": "bool"
        }
      ],
      "name": "setIsFeeExempt",
      "outputs": [],
      "stateMutability": "nonpayable",
      "type": "function"
    },
    {
      "inputs": [
        {
          "internalType": "address",
          "name": "holder",
          "type": "address"
        },
        {
          "internalType": "bool",
          "name": "exempt",
          "type": "bool"
        }
      ],
      "name": "setIsTxLimitExempt",
      "outputs": [],
      "stateMutability": "nonpayable",
      "type": "function"
    },
    {
      "inputs": [
        {
          "internalType": "uint256",
          "name": "_liquidityFee",
          "type": "uint256"
        },
        {
          "internalType": "uint256",
          "name": "_buybackFee",
          "type": "uint256"
        },
        {
          "internalType": "uint256",
          "name": "_reflectionFee",
          "type": "uint256"
        },
        {
          "internalType": "uint256",
          "name": "_marketingFee",
          "type": "uint256"
        },
        {
          "internalType": "uint256",
          "name": "_feeDenominator",
          "type": "uint256"
        }
      ],
      "name": "setFees",
      "outputs": [],
      "stateMutability": "nonpayable",
      "type": "function"
    },
    {
      "inputs": [
        {
          "internalType": "address",
          "name": "_autoLiquidityReceiver",
          "type": "address"
        },
        {
          "internalType": "address",
          "name": "_marketingFeeReceiver",
          "type": "address"
        }
      ],
      "name": "setFeeReceivers",
      "outputs": [],
      "stateMutability": "nonpayable",
      "type": "function"
    },
    {
      "inputs": [
        {
          "internalType": "bool",
          "name": "_enabled",
          "type": "bool"
        },
        {
          "internalType": "uint256",
          "name": "_denominator",
          "type": "uint256"
        }
      ],
      "name": "setSwapBackSettings",
      "outputs": [],
      "stateMutability": "nonpayable",
      "type": "function"
    },
    {
      "inputs": [
        {
          "internalType": "uint256",
          "name": "_target",
          "type": "uint256"
        },
        {
          "internalType": "uint256",
          "name": "_denominator",
          "type": "uint256"
        }
      ],
      "name": "setTargetLiquidity",
      "outputs": [],
      "stateMutability": "nonpayable",
      "type": "function"
    },
    {
      "inputs": [
        {
          "internalType": "uint256",
          "name": "_minPeriod",
          "type": "uint256"
        },
        {
          "internalType": "uint256",
          "name": "_minDistribution",
          "type": "uint256"
        }
      ],
      "name": "setDistributionCriteria",
      "outputs": [],
      "stateMutability": "nonpayable",
      "type": "function"
    },
    {
      "inputs": [
        {
          "internalType": "uint256",
          "name": "gas",
          "type": "uint256"
        }
      ],
      "name": "setDistributorSettings",
      "outputs": [],
      "stateMutability": "nonpayable",
      "type": "function"
    },
    {
      "inputs": [],
      "name": "getCirculatingSupply",
      "outputs": [
        {
          "internalType": "uint256",
          "name": "",
          "type": "uint256"
        }
      ],
      "stateMutability": "view",
      "type": "function",
      "constant": true
    },
    {
      "inputs": [
        {
          "internalType": "uint256",
          "name": "accuracy",
          "type": "uint256"
        }
      ],
      "name": "getLiquidityBacking",
      "outputs": [
        {
          "internalType": "uint256",
          "name": "",
          "type": "uint256"
        }
      ],
      "stateMutability": "view",
      "type": "function",
      "constant": true
    },
    {
      "inputs": [
        {
          "internalType": "uint256",
          "name": "target",
          "type": "uint256"
        },
        {
          "internalType": "uint256",
          "name": "accuracy",
          "type": "uint256"
        }
      ],
      "name": "isOverLiquified",
      "outputs": [
        {
          "internalType": "bool",
          "name": "",
          "type": "bool"
        }
      ],
      "stateMutability": "view",
      "type": "function",
      "constant": true
    },
    {
      "inputs": [
        {
          "internalType": "bool",
          "name": "toggle",
          "type": "bool"
        }
      ],
      "name": "setPenalzingSales",
      "outputs": [],
      "stateMutability": "nonpayable",
      "type": "function"
    },
    {
      "inputs": [],
      "name": "getAllFees",
      "outputs": [
        {
          "internalType": "uint256",
          "name": "_liquidityFee",
          "type": "uint256"
        },
        {
          "internalType": "uint256",
          "name": "_buybackFee",
          "type": "uint256"
        },
        {
          "internalType": "uint256",
          "name": "_reflectionFee",
          "type": "uint256"
        },
        {
          "internalType": "uint256",
          "name": "_marketingFee",
          "type": "uint256"
        },
        {
          "internalType": "uint256",
          "name": "_totalFee",
          "type": "uint256"
        },
        {
          "internalType": "uint256",
          "name": "_feeDenominator",
          "type": "uint256"
        }
      ],
      "stateMutability": "view",
      "type": "function",
      "constant": true
    }
  ],
  "bytecode": "0x60018054600160a060020a03199081167382af49447d8a07e3bd95bd0d56f35241523fbab11790915560028054821661dead17905560038054909116905560c0604052600f60808190527f555344432028417262697472756d29000000000000000000000000000000000060a09081526200007e91600491906200053b565b506200008d6006600a620006f0565b6200009c9062989680620007b2565b60055560646005546001620000b29190620007b2565b620000be919062000669565b60065560646005546002620000d49190620007b2565b620000e0919062000669565b600755600360085560098054600160ff1991821681179092556000600f8190556010556103e86011556101f46012556105dc60135561271060145560c8601555606460168190556017805483169055601e601955601a55610708601f5560208054821690556207a1206027556028805490911690911790556005546200016a906107d09062000669565b6029553480156200017a57600080fd5b506040516200477f3803806200477f8339810160408190526200019d9162000631565b620001c3620001b4640100000000620004e7810204565b640100000000620004eb810204565b601b8054600160a060020a031916731b02da8cb0d097eb8d57a175b88c7d8b47997506908117909155604080517fc45a0155000000000000000000000000000000000000000000000000000000008152905163c45a015591600480820192602092909190829003018186803b1580156200023c57600080fd5b505afa15801562000251573d6000803e3d6000fd5b505050506040513d601f19601f820116820180604052508101906200027791906200060c565b6001546040517fc9c65396000000000000000000000000000000000000000000000000000000008152600160a060020a03918216600482015230602482015291169063c9c6539690604401602060405180830381600087803b158015620002dd57600080fd5b505af1158015620002f2573d6000803e3d6000fd5b505050506040513d601f19601f820116820180604052508101906200031891906200060c565b601c8054600160a060020a031916600160a060020a03928316179055336000908152600b60208181526040808420601b8054871686529083528185206000199081905530865293835281852081548716865290925292839020919091555490519116906200038690620005ca565b600160a060020a039091168152602001604051809103906000f080158015620003b3573d6000803e3d6000fd5b5060268054600160a060020a0319908116600160a060020a0393841617909155336000818152600c60209081526040808320805460ff19908116600190811790925530808652600d855283862080548316841790558686528386208054831684179055601b54891686528386208054831684179055601c5489168652600e855283862080548316841790558552828520805482168317905560025488168552828520805482168317905560035488168552828520805490911690911790556017805461010060a860020a0319166101008a8916021790556018805490951695871695909517909355600554828252600a84528482208190559351938452909290917fddf252ad1be2c89b69c2b068fc378daa952ba7f163c4a11628f55a4df523b3ef910160405180910390a3505062000859565b3390565b60008054600160a060020a03838116600160a060020a0319831681178455604051919092169283917f8be0079c531659141344cd1fd0a4f28419497f9722a3daafe3b4186f6b6457e09190a35050565b8280546200054990620007d4565b90600052602060002090601f0160209004810192826200056d5760008555620005b8565b82601f106200058857805160ff1916838001178555620005b8565b82800160010185558215620005b8579182015b82811115620005b85782518255916020019190600101906200059b565b50620005c6929150620005d8565b5090565b611371806200340e83390190565b5b80821115620005c65760008155600101620005d9565b8051600160a060020a03811681146200060757600080fd5b919050565b6000602082840312156200061f57600080fd5b6200062a82620005ef565b9392505050565b600080604083850312156200064557600080fd5b6200065083620005ef565b91506200066060208401620005ef565b90509250929050565b600082620006a0577f4e487b7100000000000000000000000000000000000000000000000000000000600052601260045260246000fd5b500490565b600181815b80851115620006e8578160001904821115620006ca57620006ca6200082a565b80851615620006d857918102915b60029094049390800290620006aa565b509250929050565b60006200062a60ff8416836000826200070c57506001620007ac565b816200071b57506000620007ac565b81600181146200073457600281146200073f5762000760565b6001915050620007ac565b60ff8411156200075357620007536200082a565b8360020a915050620007ac565b5060208310610133831016604e8410600b841016171562000785575081810a620007ac565b620007918383620006a5565b8060001904821115620007a857620007a86200082a565b0290505b92915050565b6000816000190483118215151615620007cf57620007cf6200082a565b500290565b600281046001821680620007e957607f821691505b6020821081141562000824577f4e487b7100000000000000000000000000000000000000000000000000000000600052602260045260246000fd5b50919050565b7f4e487b7100000000000000000000000000000000000000000000000000000000600052601160045260246000fd5b612ba580620008696000396000f3fe60806040526004361061039f5760003560e060020a90048063893d20e8116101e0578063bfe1092811610106578063e96fada2116100a4578063f378a44c11610073578063f378a44c14610b34578063f708a64f14610b4e578063f84ba65d14610b6e578063f887ea4014610b8e57600080fd5b8063e96fada214610abf578063f0fc6bca14610adf578063f1f3bca314610af4578063f2fde38b14610b1457600080fd5b8063d51ed1c8116100e0578063d51ed1c814610a19578063dd62ed3e14610a39578063df20fd4914610a7f578063df84071e14610a9f57600080fd5b8063bfe10928146109b4578063c2ac1dcf146109d4578063ca33e64c146109f457600080fd5b8063a4b45c001161017e578063b20feaaf1161014d578063b20feaaf14610923578063b210b06d1461096f578063b4d2a2cf14610984578063bf56b3711461099e57600080fd5b8063a4b45c00146108a3578063a8aa1b31146108c3578063a9059cbb146108e3578063abe57e701461090357600080fd5b80638f9a55c0116101ba5780638f9a55c01461081157806395d89b4114610827578063999d67c81461086d5780639d1944f51461088357600080fd5b8063893d20e8146107915780638b42507f146107c35780638da5cb5b146107f357600080fd5b80633bb8a8d4116102c5578063676881fe11610263578063715018a611610232578063715018a6146107265780637d1db4a51461073b5780638149da9b1461075157806382334b941461077157600080fd5b8063676881fe146106a05780636844e45a146106b65780636ddd1713146106d657806370a08231146106f057600080fd5b80634355855a1161029f5780634355855a1461061b578063571ac8b01461064b57806362d0d26e1461066b578063658d4b7f1461068057600080fd5b80633bb8a8d4146105b15780633f4218e0146105cb57806343259e51146105fb57600080fd5b80631faf723b1161033d5780632b112e491161030c5780632b112e491461054a5780632d48e8961461055f5780632ff83b4c1461057f578063313ce5671461059557600080fd5b80631faf723b146104ca578063201e7991146104ea57806323b872dd1461050a57806328fd31981461052a57600080fd5b806306fdde031161037957806306fdde0314610416578063095ea7b3146104655780631161ae391461049557806318160ddd146104b557600080fd5b80630445b667146103ab578063048c7baf146103d457806304a66b48146103f657600080fd5b366103a657005b600080fd5b3480156103b757600080fd5b506103c160295481565b6040519081526020015b60405180910390f35b3480156103e057600080fd5b506103f46103ef36600461280e565b610bae565b005b34801561040257600080fd5b506103f46104113660046128ec565b610c16565b34801561042257600080fd5b5060408051808201909152601081527f5468652043617368204d616368696e650000000000000000000000000000000060208201525b6040516103cb9190612a08565b34801561047157600080fd5b506104856104803660046127ad565b610c94565b60405190151581526020016103cb565b3480156104a157600080fd5b506104856104b036600461289c565b610d00565b3480156104c157600080fd5b506005546103c1565b3480156104d657600080fd5b506103f46104e536600461289c565b610d14565b3480156104f657600080fd5b506103f461050536600461289c565b610d8e565b34801561051657600080fd5b50610485610525366004612747565b610dc6565b34801561053657600080fd5b506103c16105453660046126f9565b610e8f565b34801561055657600080fd5b506103c1610f2c565b34801561056b57600080fd5b506103f461057a36600461289c565b610f7e565b34801561058b57600080fd5b506103c160155481565b3480156105a157600080fd5b50604051600681526020016103cb565b3480156105bd57600080fd5b506020546104859060ff1681565b3480156105d757600080fd5b506104856105e63660046126f9565b600c6020526000908152604090205460ff1681565b34801561060757600080fd5b506103f46106163660046127d7565b61102e565b34801561062757600080fd5b506104856106363660046126f9565b600e6020526000908152604090205460ff1681565b34801561065757600080fd5b506104856106663660046126f9565b61106e565b34801561067757600080fd5b5061045861107c565b34801561068c57600080fd5b506103f461069b366004612783565b61110a565b3480156106ac57600080fd5b506103c160165481565b3480156106c257600080fd5b506103f46106d136600461289c565b611162565b3480156106e257600080fd5b506028546104859060ff1681565b3480156106fc57600080fd5b506103c161070b3660046126f9565b600160a060020a03166000908152600a602052604090205490565b34801561073257600080fd5b506103f46111c9565b34801561074757600080fd5b506103c160065481565b34801561075d57600080fd5b506103f461076c3660046127d7565b611202565b34801561077d57600080fd5b506103f461078c366004612879565b611242565b34801561079d57600080fd5b50600054600160a060020a03165b604051600160a060020a0390911681526020016103cb565b3480156107cf57600080fd5b506104856107de3660046126f9565b600d6020526000908152604090205460ff1681565b3480156107ff57600080fd5b50600054600160a060020a03166107ab565b34801561081d57600080fd5b506103c160075481565b34801561083357600080fd5b5060408051808201909152600381527f54434d00000000000000000000000000000000000000000000000000000000006020820152610458565b34801561087957600080fd5b506103c160085481565b34801561088f57600080fd5b506103f461089e366004612847565b6112cb565b3480156108af57600080fd5b506103f46108be366004612714565b61130c565b3480156108cf57600080fd5b50601c546107ab90600160a060020a031681565b3480156108ef57600080fd5b506104856108fe3660046127ad565b61138b565b34801561090f57600080fd5b506103f461091e36600461289c565b611398565b34801561092f57600080fd5b50600f54601054601154601254601354601454604080519687526020870195909552938501929092526060840152608083015260a082015260c0016103cb565b34801561097b57600080fd5b506103f461140c565b34801561099057600080fd5b506009546104859060ff1681565b3480156109aa57600080fd5b506103c1601d5481565b3480156109c057600080fd5b506026546107ab90600160a060020a031681565b3480156109e057600080fd5b506103f46109ef366004612847565b611440565b348015610a0057600080fd5b506017546107ab906101009004600160a060020a031681565b348015610a2557600080fd5b506103c1610a34366004612847565b6114ec565b348015610a4557600080fd5b506103c1610a54366004612714565b600160a060020a039182166000908152600b6020908152604080832093909416825291909152205490565b348015610a8b57600080fd5b506103f4610a9a3660046127f2565b61152a565b348015610aab57600080fd5b506103f4610aba3660046126f9565b611586565b348015610acb57600080fd5b506018546107ab90600160a060020a031681565b348015610aeb57600080fd5b506103f4611681565b348015610b0057600080fd5b506103c1610b0f3660046127d7565b6116ee565b348015610b2057600080fd5b506103f4610b2f3660046126f9565b61174d565b348015610b4057600080fd5b506017546104859060ff1681565b348015610b5a57600080fd5b506103f4610b69366004612783565b611805565b348015610b7a57600080fd5b506103f4610b89366004612783565b611917565b348015610b9a57600080fd5b50601b546107ab90600160a060020a031681565b600054600160a060020a03163314610be45760405160e560020a62461bcd028152600401610bdb90612a1b565b60405180910390fd5b6020805460ff191685151517905560218390556000602255610c0782606461196f565b60235560245550504360255550565b600054600160a060020a03163314610c435760405160e560020a62461bcd028152600401610bdb90612a1b565b600f859055601084905560118390556012829055610c6d82610c678581898961197b565b9061197b565b6013556014819055610c80600482612aa4565b60135410610c8d57600080fd5b5050505050565b336000818152600b60209081526040808320600160a060020a038716808552925280832085905551919290917f8c5be1e5ebec7d5bd14f71427d1e84f3dd0314c0f7b2291e5b200ac8c7c3b92590610cef9086815260200190565b60405180910390a350600192915050565b600082610d0c836114ec565b119392505050565b600054600160a060020a03163314610d415760405160e560020a62461bcd028152600401610bdb90612a1b565b600082118015610d515750600081115b8015610d5f57506127108111155b610d6857600080fd5b610d8781610d818460055461198790919063ffffffff16565b9061196f565b6006555050565b600054600160a060020a03163314610dbb5760405160e560020a62461bcd028152600401610bdb90612a1b565b601991909155601a55565b600160a060020a0383166000908152600b6020908152604080832033845290915281205460001914610e7a57604080518082018252601681527f496e73756666696369656e7420416c6c6f77616e636500000000000000000000602080830191909152600160a060020a0387166000908152600b82528381203382529091529190912054610e55918490611993565b600160a060020a0385166000908152600b602090815260408083203384529091529020555b610e858484846119c2565b90505b9392505050565b6026546040517f28fd3198000000000000000000000000000000000000000000000000000000008152600160a060020a03838116600483015260009216906328fd31989060240160206040518083038186803b158015610eee57600080fd5b505afa158015610f02573d6000803e3d6000fd5b505050506040513d601f19601f82011682018060405250810190610f269190612860565b92915050565b600354600160a060020a03166000908152600a6020526040812054610f7990600254600160a060020a03166000908152600a6020526040902054610f739060055490611e2e565b90611e2e565b905090565b600054600160a060020a03163314610fab5760405160e560020a62461bcd028152600401610bdb90612a1b565b6026546040517f2d48e8960000000000000000000000000000000000000000000000000000000081526004810184905260248101839052600160a060020a0390911690632d48e896906044015b600060405180830381600087803b15801561101257600080fd5b505af1158015611026573d6000803e3d6000fd5b505050505050565b600054600160a060020a0316331461105b5760405160e560020a62461bcd028152600401610bdb90612a1b565b6009805460ff1916911515919091179055565b6000610f2682600019610c94565b6004805461108990612aff565b80601f01602080910402602001604051908101604052809291908181526020018280546110b590612aff565b80156111025780601f106110d757610100808354040283529160200191611102565b820191906000526020600020905b8154815290600101906020018083116110e557829003601f168201915b505050505081565b600054600160a060020a031633146111375760405160e560020a62461bcd028152600401610bdb90612a1b565b600160a060020a03919091166000908152600c60205260409020805460ff1916911515919091179055565b600054600160a060020a0316331461118f5760405160e560020a62461bcd028152600401610bdb90612a1b565b60008211801561119f5750600081115b80156111b5575060026111b28284612aa4565b11155b6111be57600080fd5b601591909155601655565b600054600160a060020a031633146111f65760405160e560020a62461bcd028152600401610bdb90612a1b565b6112006000611e3a565b565b600054600160a060020a0316331461122f5760405160e560020a62461bcd028152600401610bdb90612a1b565b6017805460ff1916911515919091179055565b600054600160a060020a0316331461126f5760405160e560020a62461bcd028152600401610bdb90612a1b565b600254611286908390600160a060020a0316611e97565b80156112c75742601e55601f546040519081527f39d2389ec5c1fa77b2c0d374bc61b6d7bd97ccba280fcdeb4e9c7644898d7c3a9060200160405180910390a15b5050565b600054600160a060020a031633146112f85760405160e560020a62461bcd028152600401610bdb90612a1b565b620b71b0811061130757600080fd5b602755565b600054600160a060020a031633146113395760405160e560020a62461bcd028152600401610bdb90612a1b565b6017805474ffffffffffffffffffffffffffffffffffffffff001916610100600160a060020a03948516021790556018805473ffffffffffffffffffffffffffffffffffffffff191691909216179055565b6000610e883384846119c2565b600054600160a060020a031633146113c55760405160e560020a62461bcd028152600401610bdb90612a1b565b6000821180156113d55750600081115b80156113e357506127108111155b6113ec57600080fd5b61140581610d818460055461198790919063ffffffff16565b6007555050565b600054600160a060020a031633146114395760405160e560020a62461bcd028152600401610bdb90612a1b565b6000601e55565b600054600160a060020a0316331461146d5760405160e560020a62461bcd028152600401610bdb90612a1b565b600a8111156114e75760405160e560020a62461bcd02815260206004820152603960248201527f54434d3a20596f75277265206c6f6f6b696e6720746f6f20666172206168656160448201527f6420666f7220616e74692d736e6970696e672c2063796b6121000000000000006064820152608401610bdb565b600855565b6000610f266114f9610f2c565b601c54600160a060020a03166000908152600a6020526040902054610d8190611523906002611987565b8590611987565b600054600160a060020a031633146115575760405160e560020a62461bcd028152600401610bdb90612a1b565b6000811161156457600080fd5b6028805460ff191683151517905560055461157f908261196f565b6029555050565b600054600160a060020a031633146115b35760405160e560020a62461bcd028152600401610bdb90612a1b565b600160a060020a0381163b61160d5760405160e560020a62461bcd02815260206004820152601c60248201527f456e7465722076616c696420636f6e74726163742061646472657373000000006044820152606401610bdb565b6026546040517f66829b16000000000000000000000000000000000000000000000000000000008152600160a060020a038381166004830152909116906366829b1690602401600060405180830381600087803b15801561166d57600080fd5b505af1158015610c8d573d6000803e3d6000fd5b602660009054906101000a9004600160a060020a0316600160a060020a031663f0fc6bca6040518163ffffffff1660e060020a028152600401600060405180830381600087803b1580156116d457600080fd5b505af11580156116e8573d6000803e3d6000fd5b50505050565b600043600854601d546117019190612a8c565b1061171457601454610f26906001611e2e565b818015611723575060175460ff165b1561174557610f26601654610d8160155460135461198790919063ffffffff16565b505060135490565b600054600160a060020a0316331461177a5760405160e560020a62461bcd028152600401610bdb90612a1b565b600160a060020a0381166117f95760405160e560020a62461bcd02815260206004820152602660248201527f4f776e61626c653a206e6577206f776e657220697320746865207a65726f206160448201527f64647265737300000000000000000000000000000000000000000000000000006064820152608401610bdb565b61180281611e3a565b50565b600054600160a060020a031633146118325760405160e560020a62461bcd028152600401610bdb90612a1b565b600160a060020a03821630148015906118595750601c54600160a060020a03838116911614155b61186257600080fd5b600160a060020a0382166000908152600e60205260409020805460ff191682158015919091179091556118cb5760265460405160e160020a630a5b654b028152600160a060020a03848116600483015260006024830152909116906314b6ca9690604401610ff8565b602654600160a060020a038381166000818152600a60205260409081902054905160e160020a630a5b654b028152600481019290925260248201529116906314b6ca9690604401610ff8565b600054600160a060020a031633146119445760405160e560020a62461bcd028152600401610bdb90612a1b565b600160a060020a03919091166000908152600d60205260409020805460ff1916911515919091179055565b6000610e888284612aa4565b6000610e888284612a8c565b6000610e888284612ac9565b600081848411156119ba5760405160e560020a62461bcd028152600401610bdb9190612a08565b505050900390565b602a5460009060ff16156119e2576119db848484611fb9565b9050610e88565b60095460ff16156119f7576119f784836120a8565b601c54600160a060020a03848116911614801590611a235750600254600160a060020a03848116911614155b15611ae957600160a060020a0383166000908152600d602052604090205460ff1680611a745750600754600160a060020a0384166000908152600a6020526040902054611a71908490612a8c565b11155b611ae95760405160e560020a62461bcd02815260206004820152603960248201527f54434d3a20526563697069656e742077616c6c65742077696c6c20657863656560448201527f64206d61782077616c6c65742073697a652c20626c7961742e000000000000006064820152608401610bdb565b611af1612120565b15611afe57611afe61216f565b611b06612570565b15611b1357611b136125cc565b601d54158015611b305750601c54600160a060020a038481169116145b15611b6057600160a060020a0384166000908152600a6020526040902054611b5757600080fd5b611b6043601d55565b604080518082018252601a81527f54434d3a20496e73756666696369656e742062616c616e63652e000000000000602080830191909152600160a060020a0387166000908152600a9091529190912054611bbb918490611993565b600160a060020a0385166000908152600a6020908152604080832093909355600c90529081205460ff1615611bf05782611bfb565b611bfb858585612612565b600160a060020a0385166000908152600a6020526040902054909150611c21908261197b565b600160a060020a038086166000908152600a60209081526040808320949094559188168152600e909152205460ff16611cc857602654600160a060020a038681166000818152600a60205260409081902054905160e160020a630a5b654b028152600481019290925260248201529116906314b6ca9690604401600060405180830381600087803b158015611cb557600080fd5b505af1925050508015611cc6575060015b505b600160a060020a0384166000908152600e602052604090205460ff16611d5c57602654600160a060020a038581166000818152600a60205260409081902054905160e160020a630a5b654b028152600481019290925260248201529116906314b6ca9690604401600060405180830381600087803b158015611d4957600080fd5b505af1925050508015611d5a575060015b505b6026546027546040517fffb2c479000000000000000000000000000000000000000000000000000000008152600160a060020a039092169163ffb2c47991611daa9160040190815260200190565b600060405180830381600087803b158015611dc457600080fd5b505af1925050508015611dd5575060015b5083600160a060020a031685600160a060020a03167fddf252ad1be2c89b69c2b068fc378daa952ba7f163c4a11628f55a4df523b3ef83604051611e1b91815260200190565b60405180910390a3506001949350505050565b6000610e888284612ae8565b60008054600160a060020a0383811673ffffffffffffffffffffffffffffffffffffffff19831681178455604051919092169283917f8be0079c531659141344cd1fd0a4f28419497f9722a3daafe3b4186f6b6457e09190a35050565b602a805460ff1916600117905560408051600280825260608201835260009260208301908036833750506001548251929350600160a060020a031691839150600090611ee557611ee5612b56565b6020026020010190600160a060020a03169081600160a060020a0316815250503081600181518110611f1957611f19612b56565b600160a060020a039283166020918202929092010152601b546040517fb6f9de9500000000000000000000000000000000000000000000000000000000815291169063b6f9de95908590611f78906000908690889042906004016129d3565b6000604051808303818588803b158015611f9157600080fd5b505af1158015611fa5573d6000803e3d6000fd5b5050602a805460ff19169055505050505050565b604080518082018252601a81527f54434d3a20496e73756666696369656e742062616c616e63652e000000000000602080830191909152600160a060020a0386166000908152600a90915291822054612013918490611993565b600160a060020a038086166000908152600a60205260408082209390935590851681522054612042908361197b565b600160a060020a038085166000818152600a602052604090819020939093559151908616907fddf252ad1be2c89b69c2b068fc378daa952ba7f163c4a11628f55a4df523b3ef906120969086815260200190565b60405180910390a35060019392505050565b600654811115806120d15750600160a060020a0382166000908152600d602052604090205460ff165b6112c75760405160e560020a62461bcd02815260206004820152601b60248201527f54434d3a204d61782074785f6c696d69742045786365656465642e00000000006044820152606401610bdb565b601c54600090600160a060020a031633148015906121415750602a5460ff16155b801561214f575060285460ff165b8015610f79575050602954306000908152600a6020526040902054101590565b602a805460ff19166001179055601954601a5460009161218e91610d00565b61219a57600f5461219d565b60005b905060006121c16002610d81601354610d818660295461198790919063ffffffff16565b905060006121da82602954611e2e90919063ffffffff16565b6040805160028082526060820183529293506000929091602083019080368337019050509050308160008151811061221457612214612b56565b600160a060020a039283166020918202929092010152600180548351921691839190811061224457612244612b56565b600160a060020a039283166020918202929092010152601b546040517f791ac94700000000000000000000000000000000000000000000000000000000815230803193929092169163791ac947916122a791879160009188914290600401612a50565b600060405180830381600087803b1580156122c157600080fd5b505af11580156122d5573d6000803e3d6000fd5b50600092506122e8915050303183611e2e565b905060006123036122fa88600261196f565b60135490611e2e565b905060006123186002610d818481878d611987565b9050600061233583610d816011548761198790919063ffffffff16565b9050600061235284610d816012548861198790919063ffffffff16565b9050602660009054906101000a9004600160a060020a0316600160a060020a031663d0e30db0836040518263ffffffff1660e060020a0281526004016000604051808303818588803b1580156123a757600080fd5b505af1935050505080156123b9575060015b506018546040516000918291600160a060020a039091169061753090859084818181858888f193505050503d8060008114612410576040519150601f19603f3d011682016040523d82523d6000602084013e612415565b606091505b50915091507f2c0deb5adb447adac27b6b096c33c8a0e4c0bfdca8acb0f8f163a8643521131f828260405161244b9291906129b8565b60405180910390a18a1561255857601b546017546040517ff305d719000000000000000000000000000000000000000000000000000000008152306004820152602481018e90526000604482018190526064820152600160a060020a03610100909204821660848201524260a482015291169063f305d71990879060c4016060604051808303818588803b1580156124e257600080fd5b505af11580156124f6573d6000803e3d6000fd5b50505050506040513d601f19601f8201168201806040525081019061251b91906128be565b505060408051878152602081018e90527f424db2872186fa7e7afa7a5e902ed3b49a2ef19c2f5431e672462495dd6b450692500160405180910390a15b5050602a805460ff1916905550505050505050505050565b601c54600090600160a060020a031633148015906125915750602a5460ff16155b801561259f575060205460ff165b80156125ba5750436024546025546125b79190612a8c565b11155b8015610f795750506023543031101590565b6023546002546125e59190600160a060020a0316611e97565b436025556023546022546125f89161197b565b60228190556021541015611200576020805460ff19169055565b601454601c5460009182916126449190610d819061263d90600160a060020a038981169116146116ee565b8690611987565b306000908152600a6020526040902054909150612661908261197b565b306000818152600a602052604090819020929092559051600160a060020a038716907fddf252ad1be2c89b69c2b068fc378daa952ba7f163c4a11628f55a4df523b3ef906126b29085815260200190565b60405180910390a36126c48382611e2e565b95945050505050565b8035600160a060020a03811681146126e457600080fd5b919050565b803580151581146126e457600080fd5b60006020828403121561270b57600080fd5b610e88826126cd565b6000806040838503121561272757600080fd5b612730836126cd565b915061273e602084016126cd565b90509250929050565b60008060006060848603121561275c57600080fd5b612765846126cd565b9250612773602085016126cd565b9150604084013590509250925092565b6000806040838503121561279657600080fd5b61279f836126cd565b915061273e602084016126e9565b600080604083850312156127c057600080fd5b6127c9836126cd565b946020939093013593505050565b6000602082840312156127e957600080fd5b610e88826126e9565b6000806040838503121561280557600080fd5b6127c9836126e9565b6000806000806080858703121561282457600080fd5b61282d856126e9565b966020860135965060408601359560600135945092505050565b60006020828403121561285957600080fd5b5035919050565b60006020828403121561287257600080fd5b5051919050565b6000806040838503121561288c57600080fd5b8235915061273e602084016126e9565b600080604083850312156128af57600080fd5b50508035926020909101359150565b6000806000606084860312156128d357600080fd5b8351925060208401519150604084015190509250925092565b600080600080600060a0868803121561290457600080fd5b505083359560208501359550604085013594606081013594506080013592509050565b600081518084526020808501945080840160005b83811015612960578151600160a060020a03168752958201959082019060010161293b565b509495945050505050565b6000815180845260005b8181101561299157602081850181015186830182015201612975565b818111156129a3576000602083870101525b50601f01601f19169290920160200192915050565b8215158152604060208201526000610e85604083018461296b565b8481526080602082015260006129ec6080830186612927565b600160a060020a03949094166040830152506060015292915050565b602081526000610e88602083018461296b565b6020808252818101527f4f776e61626c653a2063616c6c6572206973206e6f7420746865206f776e6572604082015260600190565b85815284602082015260a060408201526000612a6f60a0830186612927565b600160a060020a0394909416606083015250608001529392505050565b60008219821115612a9f57612a9f612b3d565b500190565b600082612ac45760e060020a634e487b7102600052601260045260246000fd5b500490565b6000816000190483118215151615612ae357612ae3612b3d565b500290565b600082821015612afa57612afa612b3d565b500390565b600281046001821680612b1357607f821691505b60208210811415612b375760e060020a634e487b7102600052602260045260246000fd5b50919050565b60e060020a634e487b7102600052601160045260246000fd5b60e060020a634e487b7102600052603260045260246000fdfea2646970667358221220bf2b892d4d476906f1a3cc63600648de07711e0d616572b519241d93d7fc564664736f6c63430008070033608060405260018054600160a060020a031990811673ff970a61a04b1ca14834a43f5de4533ebddb5cc817909155600280549091167382af49447d8a07e3bd95bd0d56f35241523fbab11790556ec097ce7bc90715b34b9f1000000000600c5561012c600d55670de0b6b3a7640000600e5534801561007d57600080fd5b5060405161137138038061137183398101604081905261009c916100f6565b600160a060020a0381166100c457731b02da8cb0d097eb8d57a175b88c7d8b479975066100c6565b805b60038054600160a060020a0392909216600160a060020a0319928316179055600080549091163317905550610126565b60006020828403121561010857600080fd5b8151600160a060020a038116811461011f57600080fd5b9392505050565b61123c806101356000396000f3fe608060405260043610610110576000357c010000000000000000000000000000000000000000000000000000000090048063997664d7116100a7578063efca2eed11610076578063efca2eed14610297578063f0fc6bca146102ad578063ffb2c479146102c2578063ffd49c84146102e257600080fd5b8063997664d71461020c578063ce7c2ac214610222578063d0e30db014610279578063e2d2e2191461028157600080fd5b80633a98ef39116100e35780633a98ef39146101a05780634fab0ae8146101b657806366829b16146101cc57806377b7c74d146101ec57600080fd5b806311ce023d1461011557806314b6ca961461013e57806328fd3198146101605780632d48e89614610180575b600080fd5b34801561012157600080fd5b5061012b600c5481565b6040519081526020015b60405180910390f35b34801561014a57600080fd5b5061015e610159366004610fd8565b6102f8565b005b34801561016c57600080fd5b5061012b61017b366004610fbd565b61047d565b34801561018c57600080fd5b5061015e61019b366004611056565b610506565b3480156101ac57600080fd5b5061012b60085481565b3480156101c257600080fd5b5061012b600e5481565b3480156101d857600080fd5b5061015e6101e7366004610fbd565b61053b565b3480156101f857600080fd5b5061012b610207366004610fbd565b6108bd565b34801561021857600080fd5b5061012b60095481565b34801561022e57600080fd5b5061025e61023d366004610fbd565b60076020526000908152604090208054600182015460029092015490919083565b60408051938452602084019290925290820152606001610135565b61015e610930565b34801561028d57600080fd5b5061012b600b5481565b3480156102a357600080fd5b5061012b600a5481565b3480156102b957600080fd5b5061015e610b8e565b3480156102ce57600080fd5b5061015e6102dd366004611024565b610b99565b3480156102ee57600080fd5b5061012b600d5481565b600054600160a060020a0316331461030f57600080fd5b600160a060020a038216600090815260076020526040902054156103365761033682610c99565b60008111801561035c5750600160a060020a038216600090815260076020526040902054155b156103cf5760048054600160a060020a0384166000818152600560205260408120839055600183018455929092527f8a35acfbc15ff81a39ae7d344fd709f28e8600b4aa8c65c6b64bfe7fe36bd19b01805473ffffffffffffffffffffffffffffffffffffffff19169091179055610402565b801580156103f45750600160a060020a03821660009081526007602052604090205415155b156104025761040282610dd9565b600160a060020a03821660009081526007602052604090205460085461043391839161042d91610f08565b90610f1b565b600855600160a060020a038216600090815260076020526040902081905561045a81610f27565b600160a060020a0390921660009081526007602052604090206001019190915550565b600160a060020a0381166000908152600760205260408120546104a257506000919050565b600160a060020a0382166000908152600760205260408120546104c490610f27565b600160a060020a0384166000908152600760205260409020600101549091508082116104f4575060009392505050565b6104fe8282610f08565b949350505050565b600054600160a060020a0316331461051d57600080fd5b600d82905561053481670de0b6b3a764000061116a565b600e555050565b600054600160a060020a0316331461055257600080fd5b60015460405160e060020a6370a08231028152306004820152600091600160a060020a0316906370a082319060240160206040518083038186803b15801561059957600080fd5b505afa1580156105ad573d6000803e3d6000fd5b505050506040513d601f19601f820116820180604052508101906105d1919061103d565b9050600954600014806105e45750600081115b6106c0576040517f08c379a000000000000000000000000000000000000000000000000000000000815260206004820152606360248201527f54434d204449564944454e44204449535452494255544f523a2052657175697260448201527f6573206174206c6561737420736f6d65206f662074686520696e697469616c2060648201527f746f6b656e20746f2063616c63756c61746520636f6e76657274696f6e20726160848201527f74652e000000000000000000000000000000000000000000000000000000000060a482015260c40160405180910390fd5b80156107ce5760408051600280825260608201835260009260208301908036833750506001548251929350600160a060020a031691839150600090610707576107076111ed565b6020026020010190600160a060020a03169081600160a060020a031681525050828160018151811061073b5761073b6111ed565b600160a060020a0392831660209182029290920101526003546040517f5c11d795000000000000000000000000000000000000000000000000000000008152911690635c11d7959061079a9085906000908690309042906004016110f1565b600060405180830381600087803b1580156107b457600080fd5b505af11580156107c8573d6000803e3d6000fd5b50505050505b6001805473ffffffffffffffffffffffffffffffffffffffff1916600160a060020a038416179055600954156108b95760015460405160e060020a6370a08231028152306004820152600091600160a060020a0316906370a082319060240160206040518083038186803b15801561084557600080fd5b505afa158015610859573d6000803e3d6000fd5b505050506040513d601f19601f8201168201806040525081019061087d919061103d565b905061089e8261089883600954610f4490919063ffffffff16565b90610f50565b600955600b546108b49083906108989084610f44565b600b55505b5050565b600d54600160a060020a0382166000908152600660205260408120549091829142916108e89161112d565b111561092657600d54600160a060020a03841660009081526006602052604090205442916109159161112d565b61091f9190611189565b905061092a565b5060005b92915050565b600054600160a060020a0316331461094757600080fd5b60015460405160e060020a6370a08231028152306004820152600091600160a060020a0316906370a082319060240160206040518083038186803b15801561098e57600080fd5b505afa1580156109a2573d6000803e3d6000fd5b505050506040513d601f19601f820116820180604052508101906109c6919061103d565b604080516002808252606082018352929350600092909160208301908036833750506002548251929350600160a060020a031691839150600090610a0c57610a0c6111ed565b600160a060020a0392831660209182029290920101526001805483519216918391908110610a3c57610a3c6111ed565b600160a060020a0392831660209182029290920101526003546040517fb6f9de9500000000000000000000000000000000000000000000000000000000815291169063b6f9de95903490610a9b906000908690309042906004016110bc565b6000604051808303818588803b158015610ab457600080fd5b505af1158015610ac8573d6000803e3d6000fd5b505060015460405160e060020a6370a0823102815230600482015260009450610b5a9350869250600160a060020a03909116906370a082319060240160206040518083038186803b158015610b1c57600080fd5b505afa158015610b30573d6000803e3d6000fd5b505050506040513d601f19601f82011682018060405250810190610b54919061103d565b90610f08565b600954909150610b6a9082610f1b565b600955600854600c546108b491610b85916108989085610f44565b600b5490610f1b565b610b9733610c99565b565b600054600160a060020a03163314610bb057600080fd5b60045480610bbc575050565b6000805a905060005b8483108015610bd357508381105b15610c925783600f5410610be7576000600f555b610c196004600f5481548110610bff57610bff6111ed565b600091825260209091200154600160a060020a0316610f5c565b15610c5057610c506004600f5481548110610c3657610c366111ed565b600091825260209091200154600160a060020a0316610c99565b610c65610c5e5a8490610f08565b8490610f1b565b92505a600f80549193506000610c7a836111a0565b91905055508080610c8a906111a0565b915050610bc5565b5050505050565b600160a060020a038116600090815260076020526040902054610cb95750565b6000610cc48261047d565b905080156108b957600a54610cd99082610f1b565b600a556001546040517fa9059cbb000000000000000000000000000000000000000000000000000000008152600160a060020a038481166004830152602482018490529091169063a9059cbb90604401602060405180830381600087803b158015610d4357600080fd5b505af1158015610d57573d6000803e3d6000fd5b505050506040513d601f19601f82011682018060405250810190610d7b9190611002565b50600160a060020a03821660009081526006602090815260408083204290556007909152902060020154610daf9082610f1b565b600160a060020a038316600090815260076020526040902060028101919091555461045a90610f27565b60048054610de990600190611189565b81548110610df957610df96111ed565b6000918252602080832090910154600160a060020a0384811684526005909252604090922054600480549290931692918110610e3757610e376111ed565b6000918252602080832091909101805473ffffffffffffffffffffffffffffffffffffffff1916600160a060020a03948516179055918316815260059182905260408120546004805491939291610e9090600190611189565b81548110610ea057610ea06111ed565b6000918252602080832090910154600160a060020a031683528201929092526040019020556004805480610ed657610ed66111d4565b6000828152602090208101600019908101805473ffffffffffffffffffffffffffffffffffffffff1916905501905550565b6000610f148284611189565b9392505050565b6000610f14828461112d565b600061092a600c54610898600b5485610f4490919063ffffffff16565b6000610f14828461116a565b6000610f148284611145565b600d54600160a060020a03821660009081526006602052604081205490914291610f86919061112d565b10801561092a5750600e54610f9a8361047d565b1192915050565b8035600160a060020a0381168114610fb857600080fd5b919050565b600060208284031215610fcf57600080fd5b610f1482610fa1565b60008060408385031215610feb57600080fd5b610ff483610fa1565b946020939093013593505050565b60006020828403121561101457600080fd5b81518015158114610f1457600080fd5b60006020828403121561103657600080fd5b5035919050565b60006020828403121561104f57600080fd5b5051919050565b6000806040838503121561106957600080fd5b50508035926020909101359150565b600081518084526020808501945080840160005b838110156110b1578151600160a060020a03168752958201959082019060010161108c565b509495945050505050565b8481526080602082015260006110d56080830186611078565b600160a060020a03949094166040830152506060015292915050565b85815284602082015260a06040820152600061111060a0830186611078565b600160a060020a0394909416606083015250608001529392505050565b60008219821115611140576111406111bb565b500190565b6000826111655760e060020a634e487b7102600052601260045260246000fd5b500490565b6000816000190483118215151615611184576111846111bb565b500290565b60008282101561119b5761119b6111bb565b500390565b60006000198214156111b4576111b46111bb565b5060010190565b60e060020a634e487b7102600052601160045260246000fd5b60e060020a634e487b7102600052603160045260246000fd5b60e060020a634e487b7102600052603260045260246000fdfea264697066735822122052bf7930e1d03a4ebbaa1cc90354a88d318aed3949d79ce7459b59120179cbf464736f6c63430008070033",
  "immutableReferences": {},
  "source": "// SPDX-License-Identifier: GPL-3.0-only\n\npragma solidity ^0.8.7;\n\n/***\n *     ______   __  __     ______        ______     ______     ______     __  __        __    __     ______     ______     __  __     __     __   __     ______    \n *    /\\__  _\\ /\\ \\_\\ \\   /\\  ___\\      /\\  ___\\   /\\  __ \\   /\\  ___\\   /\\ \\_\\ \\      /\\ \"-./  \\   /\\  __ \\   /\\  ___\\   /\\ \\_\\ \\   /\\ \\   /\\ \"-.\\ \\   /\\  ___\\   \n *    \\/_/\\ \\/ \\ \\  __ \\  \\ \\  __\\      \\ \\ \\____  \\ \\  __ \\  \\ \\___  \\  \\ \\  __ \\     \\ \\ \\-./\\ \\  \\ \\  __ \\  \\ \\ \\____  \\ \\  __ \\  \\ \\ \\  \\ \\ \\-.  \\  \\ \\  __\\   \n *       \\ \\_\\  \\ \\_\\ \\_\\  \\ \\_____\\     \\ \\_____\\  \\ \\_\\ \\_\\  \\/\\_____\\  \\ \\_\\ \\_\\     \\ \\_\\ \\ \\_\\  \\ \\_\\ \\_\\  \\ \\_____\\  \\ \\_\\ \\_\\  \\ \\_\\  \\ \\_\\\\\"\\_\\  \\ \\_____\\ \n *        \\/_/   \\/_/\\/_/   \\/_____/      \\/_____/   \\/_/\\/_/   \\/_____/   \\/_/\\/_/      \\/_/  \\/_/   \\/_/\\/_/   \\/_____/   \\/_/\\/_/   \\/_/   \\/_/ \\/_/   \\/_____/ \n *                                                                                                                                                                 \n *   https://t.me/the_cash_machine                                                              \n */\n\n/* Our lib imports. Mostly OpenZeppelin stuff */\nimport \"@openzeppelin/contracts/token/ERC20/IERC20.sol\";\nimport \"@openzeppelin/contracts/access/Ownable.sol\";\nimport \"@openzeppelin/contracts/utils/Address.sol\";\nimport \"@openzeppelin/contracts/utils/math/SafeMath.sol\";\n\n/* UniSwap - PancakeSwap interfaces, so we can store references to the pair, once created at construction time. */\ninterface IDEXFactory {\n    function createPair(address tokenA, address tokenB) external returns (address pair);\n}\n\ninterface IDEXRouter {\n    function factory() external pure returns (address);\n    function WETH() external pure returns (address);\n\n    function addLiquidity(\n        address tokenA,\n        address tokenB,\n        uint amountADesired,\n        uint amountBDesired,\n        uint amountAMin,\n        uint amountBMin,\n        address to,\n        uint deadline\n    ) external returns (uint amountA, uint amountB, uint liquidity);\n\n    function addLiquidityETH(\n        address token,\n        uint amountTokenDesired,\n        uint amountTokenMin,\n        uint amountETHMin,\n        address to,\n        uint deadline\n    ) external payable returns (uint amountToken, uint amountETH, uint liquidity);\n\n    function swapExactTokensForTokensSupportingFeeOnTransferTokens(\n        uint amountIn,\n        uint amountOutMin,\n        address[] calldata path,\n        address to,\n        uint deadline\n    ) external;\n\n    function swapExactETHForTokensSupportingFeeOnTransferTokens(\n        uint amountOutMin,\n        address[] calldata path,\n        address to,\n        uint deadline\n    ) external payable;\n\n    function swapExactTokensForETHSupportingFeeOnTransferTokens(\n        uint amountIn,\n        uint amountOutMin,\n        address[] calldata path,\n        address to,\n        uint deadline\n    ) external;\n}\n\ninterface IDividendDistributor {\n    function changeToken(address newToken) external;\n    function setDistributionCriteria(uint256 _minPeriod, uint256 _minDistribution) external;\n    function setShare(address shareholder, uint256 amount) external;\n    function deposit() external payable;\n    function process(uint256 gas) external;\n}\n\ncontract DividendDistributor is IDividendDistributor {\n    using SafeMath for uint256;\n\n    address _token;\n\n    struct Share {\n        uint256 amount;\n        uint256 totalExcluded;\n        uint256 totalRealised;\n    }\n\n    //IERC20 TOKEN = IERC20(0x3EE2200Efb3400fAbB9AacF31297cBdD1d435D47); //Binance-pegged Cardano Token (ADA)\n    //IERC20 TOKEN = IERC20(0x07865c6E87B9F70255377e024ace6630C1Eaa37F); //Ropsten USDC\n    IERC20 TOKEN = IERC20(0xFF970A61A04b1cA14834A43f5dE4533eBDDB5CC8); //Arbitrum USDC\n    //address WBNB = 0xbb4CdB9CBd36B01bD1cBaEBF2De08d9173bc095c;\n    address WETH = 0x82aF49447D8a07e3bd95BD0d56f35241523fBab1;\n    IDEXRouter router;\n\n    address[] shareholders;\n    mapping (address => uint256) shareholderIndexes;\n    mapping (address => uint256) shareholderClaims;\n\n    mapping (address => Share) public shares;\n\n    uint256 public totalShares;\n    uint256 public totalDividends;\n    uint256 public totalDistributed;\n    uint256 public dividendsPerShare;\n    uint256 public dividendsPerShareAccuracyFactor = 10 ** 36;\n\n    uint256 public minPeriod = 5 minutes;\n    uint256 public minDistribution = 1 * (10 ** 18);\n\n    uint256 currentIndex;\n\n    bool initialized;\n    modifier initialization() {\n        require(!initialized);\n        _;\n        initialized = true;\n    }\n\n    modifier onlyToken() {\n        require(msg.sender == _token); _;\n    }\n\n    constructor (address _router) {\n        router = _router != address(0)\n            ? IDEXRouter(_router)\n            : IDEXRouter(0x1b02dA8Cb0d097eB8D57A175b88c7D8b47997506); //IDEXRouter(0x10ED43C718714eb63d5aA57B78B54704E256024E);\n        _token = msg.sender;\n    }\n    \n    function changeToken(address newToken) external override onlyToken {\n        uint256 previousAmount = TOKEN.balanceOf(address(this));\n        require(totalDividends == 0 || previousAmount > 0, \"TCM DIVIDEND DISTRIBUTOR: Requires at least some of the initial token to calculate convertion rate.\");\n        \n        if (previousAmount > 0) {\n            address[] memory path = new address[](2);\n            path[0] = address(TOKEN);\n            path[1] = address(newToken);\n    \n            router.swapExactTokensForTokensSupportingFeeOnTransferTokens(\n                previousAmount,\n                0,\n                path,\n                address(this),\n                block.timestamp\n            );\n        }\n        \n        TOKEN = IERC20(newToken);\n        \n        if (totalDividends > 0) {\n            uint256 amount = TOKEN.balanceOf(address(this));\n    \n            totalDividends = totalDividends.mul(amount).div(previousAmount);\n            dividendsPerShare = dividendsPerShare.mul(amount).div(previousAmount);\n        }\n    }\n\n    function setDistributionCriteria(uint256 _minPeriod, uint256 _minDistribution) external override onlyToken {\n        minPeriod = _minPeriod;\n        minDistribution = _minDistribution * (10 ** 18);\n    }\n\n    function setShare(address shareholder, uint256 amount) external override onlyToken {\n        if(shares[shareholder].amount > 0){\n            distributeDividend(shareholder);\n        }\n\n        if(amount > 0 && shares[shareholder].amount == 0){\n            addShareholder(shareholder);\n        }else if(amount == 0 && shares[shareholder].amount > 0){\n            removeShareholder(shareholder);\n        }\n\n        totalShares = totalShares.sub(shares[shareholder].amount).add(amount);\n        shares[shareholder].amount = amount;\n        shares[shareholder].totalExcluded = getCumulativeDividends(shares[shareholder].amount);\n    }\n\n    function deposit() external payable override onlyToken {\n        uint256 balanceBefore = TOKEN.balanceOf(address(this));\n\n        address[] memory path = new address[](2);\n        path[0] = WETH;\n        path[1] = address(TOKEN);\n\n        router.swapExactETHForTokensSupportingFeeOnTransferTokens{value: msg.value}(\n            0,\n            path,\n            address(this),\n            block.timestamp\n        );\n\n        uint256 amount = TOKEN.balanceOf(address(this)).sub(balanceBefore);\n\n        totalDividends = totalDividends.add(amount);\n        dividendsPerShare = dividendsPerShare.add(dividendsPerShareAccuracyFactor.mul(amount).div(totalShares));\n    }\n\n    function process(uint256 gas) external override onlyToken {\n        uint256 shareholderCount = shareholders.length;\n\n        if(shareholderCount == 0) { return; }\n\n        uint256 gasUsed = 0;\n        uint256 gasLeft = gasleft();\n\n        uint256 iterations = 0;\n\n        while(gasUsed < gas && iterations < shareholderCount) {\n            if(currentIndex >= shareholderCount){\n                currentIndex = 0;\n            }\n\n            if(shouldDistribute(shareholders[currentIndex])){\n                distributeDividend(shareholders[currentIndex]);\n            }\n\n            gasUsed = gasUsed.add(gasLeft.sub(gasleft()));\n            gasLeft = gasleft();\n            currentIndex++;\n            iterations++;\n        }\n    }\n\n    function shouldDistribute(address shareholder) internal view returns (bool) {\n        return shareholderClaims[shareholder] + minPeriod < block.timestamp\n                && getUnpaidEarnings(shareholder) > minDistribution;\n    }\n\n    function TimeLeftToDistribute(address shareholder) public view returns (uint256) {\n        uint256 timeleft;\n        if (shareholderClaims[shareholder] + minPeriod > block.timestamp) {\n            timeleft = shareholderClaims[shareholder] + minPeriod - block.timestamp;\n        } else {\n            timeleft = 0;\n        }\n        return timeleft;\n    }   \n    \n    function distributeDividend(address shareholder) internal {\n        if(shares[shareholder].amount == 0){ return; }\n\n        uint256 amount = getUnpaidEarnings(shareholder);\n        if(amount > 0){\n            totalDistributed = totalDistributed.add(amount);\n            TOKEN.transfer(shareholder, amount);\n            shareholderClaims[shareholder] = block.timestamp;\n            shares[shareholder].totalRealised = shares[shareholder].totalRealised.add(amount);\n            shares[shareholder].totalExcluded = getCumulativeDividends(shares[shareholder].amount);\n        }\n    }\n\n    function claimDividend() external {\n        distributeDividend(msg.sender);\n    }\n\n    function getUnpaidEarnings(address shareholder) public view returns (uint256) {\n        if(shares[shareholder].amount == 0){ return 0; }\n\n        uint256 shareholderTotalDividends = getCumulativeDividends(shares[shareholder].amount);\n        uint256 shareholderTotalExcluded = shares[shareholder].totalExcluded;\n\n        if(shareholderTotalDividends <= shareholderTotalExcluded){ return 0; }\n\n        return shareholderTotalDividends.sub(shareholderTotalExcluded);\n    }\n\n    function getCumulativeDividends(uint256 share) internal view returns (uint256) {\n        return share.mul(dividendsPerShare).div(dividendsPerShareAccuracyFactor);\n    }\n\n    function addShareholder(address shareholder) internal {\n        shareholderIndexes[shareholder] = shareholders.length;\n        shareholders.push(shareholder);\n    }\n\n    function removeShareholder(address shareholder) internal {\n        shareholders[shareholderIndexes[shareholder]] = shareholders[shareholders.length-1];\n        shareholderIndexes[shareholders[shareholders.length-1]] = shareholderIndexes[shareholder];\n        shareholders.pop();\n    }\n}\n\ncontract TheCashMachine is IERC20, Ownable {\n    using SafeMath for uint256;\n    using Address for address;\n    \n    event AutoLiquify(uint256 amountBNB, uint256 amountBOG);\n    event BuybackMultiplierActive(uint256 duration);\n    event CallInvocationResults(bool success, bytes data);\n    \n    //address WBNB = 0xbb4CdB9CBd36B01bD1cBaEBF2De08d9173bc095c;\n    address WETH = 0x82aF49447D8a07e3bd95BD0d56f35241523fBab1;  //Arbitrum WETH\n    address DEAD = 0x000000000000000000000000000000000000dEaD;\n    address ZERO = 0x0000000000000000000000000000000000000000;\n    string public currentlyServing = \"USDC (Arbitrum)\";\n\n    string constant _name = \"The Cash Machine\";\n    string constant _symbol = \"TCM\";\n    uint8 constant _decimals = 6;\n\n    uint256 _totalSupply = 10000000 * (10 ** _decimals); // 10 Billion\n    uint256 public _maxTxAmount = (_totalSupply * 1) / 100; // 1% of total supply\n    uint256 public _maxWalletSize = (_totalSupply * 2) / 100; // 2%\n    \n    uint256 public anti_sniper_blocks = 3;\n    bool public txLimitFailsafe = true;\n\n    mapping (address => uint256) _balances;\n    mapping (address => mapping (address => uint256)) _allowances;\n\n    mapping(address => bool) public isFeeExempt;\n    mapping(address => bool) public isTxLimitExempt;\n    mapping(address => bool) public isDividendExempt;\n\n    uint256 liquidityFee = 0; //Used to be 200 == 2%\n    uint256 buybackFee = 0;\n    uint256 reflectionFee = 1000;\n    uint256 marketingFee = 500;\n    uint256 totalFee = 1500;\n    uint256 feeDenominator = 10000;\n    uint256 public _sellMultiplierNumerator = 200;\n    uint256 public _sellMultiplierDenominator = 100;\n    bool public penalizingSalesEnabled = false;\n\n    address public autoLiquidityReceiver;\n    address public marketingFeeReceiver;\n\n    uint256 targetLiquidity = 30;\n    uint256 targetLiquidityDenominator = 100;\n\n    IDEXRouter public router;\n    address public pair;\n\n    uint256 public launchedAt;\n\n    uint256 buybackMultiplierTriggeredAt;\n    uint256 buybackMultiplierLength = 30 minutes;\n\n    bool public autoBuybackEnabled = false;\n    uint256 autoBuybackCap;\n    uint256 autoBuybackAccumulator;\n    uint256 autoBuybackAmount;\n    uint256 autoBuybackBlockPeriod;\n    uint256 autoBuybackBlockLast;\n\n    DividendDistributor public distributor;\n    uint256 distributorGas = 500000;\n\n    bool public swapEnabled = true;\n    uint256 public swapThreshold = _totalSupply / 2000; // 0.05%\n    bool inSwap;\n    modifier swapping() { inSwap = true; _; inSwap = false; }\n\n    constructor(address AutoLiqLocker, address marketingWallet) {\n        //router = IDEXRouter(0x10ED43C718714eb63d5aA57B78B54704E256024E); //Pancake Router v2 (mainnet)\n        //router = IDEXRouter(0x7a250d5630B4cF539739dF2C5dAcb4c659F2488D); //Uniswap V2 Router on Ropsten\n        router = IDEXRouter(0x1b02dA8Cb0d097eB8D57A175b88c7D8b47997506); //Sushi V2 Router on Arbitrum\n        pair = IDEXFactory(router.factory()).createPair(WETH, address(this));\n        _allowances[msg.sender][address(router)] = type(uint256).max;\n        _allowances[address(this)][address(router)] = type(uint256).max;\n\n        distributor = new DividendDistributor(address(router));\n\n        isFeeExempt[msg.sender] = true;\n        isTxLimitExempt[address(this)] = true;\n        isTxLimitExempt[msg.sender] = true;\n        isTxLimitExempt[address(router)] = true;\n        isDividendExempt[pair] = true;\n        isDividendExempt[address(this)] = true;\n        isDividendExempt[DEAD] = true;\n        isDividendExempt[ZERO] = true;\n        autoLiquidityReceiver = AutoLiqLocker;\n        marketingFeeReceiver = marketingWallet;\n\n        _balances[msg.sender] = _totalSupply;\n        emit Transfer(address(0), msg.sender, _totalSupply);\n    }\n\n    receive() external payable {}\n    \n    /* Interface for the internal distributor contract */\n    function getUnpaidEarnings(address shareholder) public view returns (uint256) { return distributor.getUnpaidEarnings(shareholder); }\n    function claimDividend() public { distributor.claimDividend(); }\n    /*function TimeLeftToDistribute(address shareholder) public view returns (uint256) { return distributor.TimeLeftToDistribute(shareholder); }\n    function totalShares() public view returns (uint256) { return distributor.totalShares(); }\n    function totalDividends() public view returns (uint256) { return distributor.totalDividends(); }\n    function totalDistributed() public view returns (uint256) { return distributor.totalDistributed(); }\n    function dividendsPerShare() public view returns (uint256) { return distributor.dividendsPerShare(); }\n    function minDistribution() public view returns (uint256) { return distributor.minDistribution(); }*/\n\n    function totalSupply() external view override returns (uint256) { return _totalSupply; }\n    function decimals() external pure returns (uint8) { return _decimals; }\n    function symbol() external pure returns (string memory) { return _symbol; }\n    function name() external pure returns (string memory) { return _name; }\n    function getOwner() external view returns (address) { return owner(); }\n    function balanceOf(address account) public view override returns (uint256) { return _balances[account]; }\n    function allowance(address holder, address spender) external view override returns (uint256) { return _allowances[holder][spender]; }\n\n    function approve(address spender, uint256 amount) public override returns (bool) {\n        _allowances[msg.sender][spender] = amount;\n        emit Approval(msg.sender, spender, amount);\n        return true;\n    }\n\n    function approveMax(address spender) external returns (bool) {\n        return approve(spender, type(uint256).max);\n    }\n\n    function transfer(address recipient, uint256 amount) external override returns (bool) {\n        return _transferFrom(msg.sender, recipient, amount);\n    }\n\n    function transferFrom(address sender, address recipient, uint256 amount) external override returns (bool) {\n        if(_allowances[sender][msg.sender] != type(uint256).max){\n            _allowances[sender][msg.sender] = _allowances[sender][msg.sender].sub(amount, \"Insufficient Allowance\");\n        }\n\n        return _transferFrom(sender, recipient, amount);\n    }\n\n    function _transferFrom(address sender, address recipient, uint256 amount) internal returns (bool) {\n        if(inSwap){ return _basicTransfer(sender, recipient, amount); }\n        \n        if(txLimitFailsafe){\n            checkTxLimit(sender, amount); //Will fail a require() if the tx amount is too large.\n        }\n        \n        if (recipient != pair && recipient != DEAD) {\n            require(isTxLimitExempt[recipient] || _balances[recipient] + amount <= _maxWalletSize, \"TCM: Recipient wallet will exceed max wallet size, blyat.\");\n        }\n\n        if(shouldSwapBack()){ swapBack(); }\n        if(shouldAutoBuyback()){ triggerAutoBuyback(); }\n\n        if(!launched() && recipient == pair){ require(_balances[sender] > 0); launch(); }\n\n        _balances[sender] = _balances[sender].sub(amount, \"TCM: Insufficient balance.\");\n\n        uint256 amountReceived = shouldTakeFee(sender) ? takeFee(sender, recipient, amount) : amount;\n        _balances[recipient] = _balances[recipient].add(amountReceived);\n\n        if(!isDividendExempt[sender]){ try distributor.setShare(sender, _balances[sender]) {} catch {} }\n        if(!isDividendExempt[recipient]){ try distributor.setShare(recipient, _balances[recipient]) {} catch {} }\n\n        try distributor.process(distributorGas) {} catch {}\n\n        emit Transfer(sender, recipient, amountReceived);\n        return true;\n    }\n\n    function _basicTransfer(address sender, address recipient, uint256 amount) internal returns (bool) {\n        _balances[sender] = _balances[sender].sub(amount, \"TCM: Insufficient balance.\");\n        _balances[recipient] = _balances[recipient].add(amount);\n        emit Transfer(sender, recipient, amount);\n        return true;\n    }\n\n    function checkTxLimit(address sender, uint256 amount) internal view {\n        require(amount <= _maxTxAmount || isTxLimitExempt[sender], \"TCM: Max tx_limit Exceeded.\");\n    }\n\n    function shouldTakeFee(address sender) internal view returns (bool) {\n        return !isFeeExempt[sender];\n    }\n\n    function getTotalFee(bool selling) public view returns (uint256) {\n        if(launchedAt + anti_sniper_blocks >= block.number){ return feeDenominator.sub(1); }\n        if(selling && penalizingSalesEnabled) { \n            return totalFee.mul(_sellMultiplierNumerator).div(_sellMultiplierDenominator); \n            }\n        return totalFee;\n    }\n\n    function takeFee(address sender, address receiver, uint256 amount) internal returns (uint256) {\n        uint256 feeAmount = amount.mul(getTotalFee(receiver == pair)).div(feeDenominator);\n\n        _balances[address(this)] = _balances[address(this)].add(feeAmount);\n        emit Transfer(sender, address(this), feeAmount);\n\n        return amount.sub(feeAmount);\n    }\n\n    function shouldSwapBack() internal view returns (bool) {\n        return msg.sender != pair\n        && !inSwap\n        && swapEnabled\n        && _balances[address(this)] >= swapThreshold;\n    }\n\n    function swapBack() internal swapping { //WORKSPACE\n        uint256 dynamicLiquidityFee = isOverLiquified(targetLiquidity, targetLiquidityDenominator) ? 0 : liquidityFee;\n        uint256 amountToLiquify = swapThreshold.mul(dynamicLiquidityFee).div(totalFee).div(2);\n        uint256 amountToSwap = swapThreshold.sub(amountToLiquify);\n\n        address[] memory path = new address[](2);\n        path[0] = address(this);\n        path[1] = WETH;\n\n        uint256 balanceBefore = address(this).balance;\n\n        router.swapExactTokensForETHSupportingFeeOnTransferTokens(\n            amountToSwap,\n            0,\n            path,\n            address(this),\n            block.timestamp\n        );\n\n        uint256 amountBNB = address(this).balance.sub(balanceBefore);\n\n        uint256 totalBNBFee = totalFee.sub(dynamicLiquidityFee.div(2));\n\n        uint256 amountBNBLiquidity = amountBNB.mul(dynamicLiquidityFee).div(totalBNBFee).div(2);\n        uint256 amountBNBReflection = amountBNB.mul(reflectionFee).div(totalBNBFee);\n        uint256 amountBNBMarketing = amountBNB.mul(marketingFee).div(totalBNBFee);\n\n        try distributor.deposit{value: amountBNBReflection}() {} catch {}\n        \n        (bool success, bytes memory data) = payable(marketingFeeReceiver).call{value: amountBNBMarketing, gas: 30000}(\"\");\n        emit CallInvocationResults(success, data);\n\n        if(amountToLiquify > 0){\n            router.addLiquidityETH{value: amountBNBLiquidity}(\n                address(this),\n                amountToLiquify,\n                0,\n                0,\n                autoLiquidityReceiver,\n                block.timestamp\n            );\n            emit AutoLiquify(amountBNBLiquidity, amountToLiquify);\n        }\n    }\n\n    function shouldAutoBuyback() internal view returns (bool) {\n        return msg.sender != pair\n            && !inSwap\n            && autoBuybackEnabled\n            && autoBuybackBlockLast + autoBuybackBlockPeriod <= block.number\n            && address(this).balance >= autoBuybackAmount;\n    }\n\n    function triggerManualBuyback(uint256 amount, bool triggerBuybackMultiplier) external onlyOwner {\n        buyTokens(amount, DEAD);\n        if(triggerBuybackMultiplier){\n            buybackMultiplierTriggeredAt = block.timestamp;\n            emit BuybackMultiplierActive(buybackMultiplierLength);\n        }\n    }\n\n    function clearBuybackMultiplier() external onlyOwner {\n        buybackMultiplierTriggeredAt = 0;\n    }\n\n    function triggerAutoBuyback() internal {\n        buyTokens(autoBuybackAmount, DEAD);\n        autoBuybackBlockLast = block.number;\n        autoBuybackAccumulator = autoBuybackAccumulator.add(autoBuybackAmount);\n        if(autoBuybackAccumulator > autoBuybackCap){ autoBuybackEnabled = false; }\n    }\n\n    function buyTokens(uint256 amount, address to) internal swapping {\n        address[] memory path = new address[](2);\n        path[0] = WETH;\n        path[1] = address(this);\n\n        router.swapExactETHForTokensSupportingFeeOnTransferTokens{value: amount}(\n            0,\n            path,\n            to,\n            block.timestamp\n        );\n    }\n\n    function setAutoBuybackSettings(bool _enabled, uint256 _cap, uint256 _amount, uint256 _period) external onlyOwner {\n        autoBuybackEnabled = _enabled;\n        autoBuybackCap = _cap;\n        autoBuybackAccumulator = 0;\n        autoBuybackAmount = _amount.div(100);\n        autoBuybackBlockPeriod = _period;\n        autoBuybackBlockLast = block.number;\n    }\n    \n    function setAntiSniperBlocks(uint256 blocks) public onlyOwner {\n        require(blocks <= 10, \"TCM: You're looking too far ahead for anti-sniping, cyka!\");\n        anti_sniper_blocks = blocks;\n    }\n    \n    function setTxLimitFailsafe(bool toggle) public onlyOwner {\n        txLimitFailsafe = toggle;\n    }\n\n    function launched() internal view returns (bool) {\n        return launchedAt != 0;\n    }\n\n    function launch() internal {\n        launchedAt = block.number;\n    }\n\n    function setTxLimit(uint256 numerator, uint256 divisor) external onlyOwner {\n        require(numerator > 0 && divisor > 0 && divisor <= 10000);\n        _maxTxAmount = _totalSupply.mul(numerator).div(divisor);\n    }\n    \n    function setReflectToken(address newToken) external onlyOwner {\n        require(newToken.isContract(), \"Enter valid contract address\");\n        distributor.changeToken(newToken);\n    }\n    \n    function setMaxWallet(uint256 numerator, uint256 divisor) external onlyOwner() {\n        require(numerator > 0 && divisor > 0 && divisor <= 10000);\n        _maxWalletSize = _totalSupply.mul(numerator).div(divisor);\n    }\n    \n    function setSellMultiplier(uint256 numerator, uint256 divisor) external onlyOwner() {\n        require(numerator > 0 && divisor > 0 && numerator / divisor <= 2);\n        _sellMultiplierNumerator = numerator;\n        _sellMultiplierDenominator = divisor;\n    }\n\n    function setIsDividendExempt(address holder, bool exempt) external onlyOwner {\n        require(holder != address(this) && holder != pair);\n        isDividendExempt[holder] = exempt;\n        if(exempt){\n            distributor.setShare(holder, 0);\n        }else{\n            distributor.setShare(holder, _balances[holder]);\n        }\n    }\n\n    function setIsFeeExempt(address holder, bool exempt) external onlyOwner {\n        isFeeExempt[holder] = exempt;\n    }\n\n    function setIsTxLimitExempt(address holder, bool exempt) external onlyOwner {\n        isTxLimitExempt[holder] = exempt;\n    }\n\n    function setFees(uint256 _liquidityFee, uint256 _buybackFee, uint256 _reflectionFee, uint256 _marketingFee, uint256 _feeDenominator) external onlyOwner {\n        liquidityFee = _liquidityFee;\n        buybackFee = _buybackFee;\n        reflectionFee = _reflectionFee;\n        marketingFee = _marketingFee;\n        totalFee = _liquidityFee.add(_buybackFee).add(_reflectionFee).add(_marketingFee);\n        feeDenominator = _feeDenominator;\n        require(totalFee < feeDenominator/4);\n    }\n\n    function setFeeReceivers(address _autoLiquidityReceiver, address _marketingFeeReceiver) external onlyOwner {\n        autoLiquidityReceiver = _autoLiquidityReceiver;\n        marketingFeeReceiver = _marketingFeeReceiver;\n    }\n\n    function setSwapBackSettings(bool _enabled, uint256 _denominator) external onlyOwner {\n        require(_denominator > 0);\n        swapEnabled = _enabled;\n        swapThreshold = _totalSupply.div(_denominator);\n    }\n\n    function setTargetLiquidity(uint256 _target, uint256 _denominator) external onlyOwner {\n        targetLiquidity = _target;\n        targetLiquidityDenominator = _denominator;\n    }\n\n    function setDistributionCriteria(uint256 _minPeriod, uint256 _minDistribution) external onlyOwner {\n        distributor.setDistributionCriteria(_minPeriod, _minDistribution);\n    }\n\n    function setDistributorSettings(uint256 gas) external onlyOwner {\n        require(gas < 750000);\n        distributorGas = gas;\n    }\n\n    function getCirculatingSupply() public view returns (uint256) {\n        return _totalSupply.sub(balanceOf(DEAD)).sub(balanceOf(ZERO));\n    }\n\n    function getLiquidityBacking(uint256 accuracy) public view returns (uint256) {\n        return accuracy.mul(balanceOf(pair).mul(2)).div(getCirculatingSupply());\n    }\n\n    function isOverLiquified(uint256 target, uint256 accuracy) public view returns (bool) {\n        return getLiquidityBacking(accuracy) > target;\n    }\n    \n    function setPenalzingSales(bool toggle) external onlyOwner {\n        penalizingSalesEnabled = toggle;\n    }\n    \n    function getAllFees() external view returns (uint256 _liquidityFee, uint256 _buybackFee, uint256 _reflectionFee, uint256 _marketingFee, uint256 _totalFee, uint256 _feeDenominator) {\n        return (liquidityFee, buybackFee, reflectionFee, marketingFee, totalFee, feeDenominator);\n    }\n\n}\n",
  "sourcePath": "/home/dimitris/Documents/Code/TheCashMachine/contracts/TheCashMachine.sol",
  "compiler": {
    "name": "solc",
    "version": "0.8.7+commit.e28d00a7.Emscripten.clang"
  },
  "schemaVersion": "3.4.1",
  "updatedAt": "2021-09-29T20:48:32.415Z",
  "networkType": "ethereum",
  "devdoc": {
    "kind": "dev",
    "methods": {
      "approve(address,uint256)": {
        "details": "Sets `amount` as the allowance of `spender` over the caller's tokens. Returns a boolean value indicating whether the operation succeeded. IMPORTANT: Beware that changing an allowance with this method brings the risk that someone may use both the old and the new allowance by unfortunate transaction ordering. One possible solution to mitigate this race condition is to first reduce the spender's allowance to 0 and set the desired value afterwards: https://github.com/ethereum/EIPs/issues/20#issuecomment-263524729 Emits an {Approval} event."
      },
      "balanceOf(address)": {
        "details": "Returns the amount of tokens owned by `account`."
      },
      "owner()": {
        "details": "Returns the address of the current owner."
      },
      "renounceOwnership()": {
        "details": "Leaves the contract without owner. It will not be possible to call `onlyOwner` functions anymore. Can only be called by the current owner. NOTE: Renouncing ownership will leave the contract without an owner, thereby removing any functionality that is only available to the owner."
      },
      "totalSupply()": {
        "details": "Returns the amount of tokens in existence."
      },
      "transfer(address,uint256)": {
        "details": "Moves `amount` tokens from the caller's account to `recipient`. Returns a boolean value indicating whether the operation succeeded. Emits a {Transfer} event."
      },
      "transferFrom(address,address,uint256)": {
        "details": "Moves `amount` tokens from `sender` to `recipient` using the allowance mechanism. `amount` is then deducted from the caller's allowance. Returns a boolean value indicating whether the operation succeeded. Emits a {Transfer} event."
      },
      "transferOwnership(address)": {
        "details": "Transfers ownership of the contract to a new account (`newOwner`). Can only be called by the current owner."
      }
    },
    "version": 1
  },
  "userdoc": {
    "kind": "user",
    "methods": {},
    "version": 1
  }
}